{
	"mylearn.sol": {
		"Faucet": {
			"abi": [
				{
					"stateMutability": "payable",
					"type": "fallback"
				},
				{
					"inputs": [
						{
							"internalType": "uint256",
							"name": "_withdrawAmount",
							"type": "uint256"
						},
						{
							"internalType": "address payable",
							"name": "_to",
							"type": "address"
						}
					],
					"name": "withdraw",
					"outputs": [],
					"stateMutability": "nonpayable",
					"type": "function"
				},
				{
					"stateMutability": "payable",
					"type": "receive"
				}
			],
			"devdoc": {
				"kind": "dev",
				"methods": {},
				"version": 1
			},
			"evm": {
				"assembly": "    /* \"mylearn.sol\":114:673  contract Faucet {... */\n  mstore(0x40, 0x80)\n  callvalue\n  dup1\n  iszero\n  tag_1\n  jumpi\n  revert(0x00, 0x00)\ntag_1:\n  pop\n  dataSize(sub_0)\n  dup1\n  dataOffset(sub_0)\n  0x00\n  codecopy\n  0x00\n  return\nstop\n\nsub_0: assembly {\n        /* \"mylearn.sol\":114:673  contract Faucet {... */\n      mstore(0x40, 0x80)\n      jumpi(tag_1, lt(calldatasize, 0x04))\n      shr(0xe0, calldataload(0x00))\n      dup1\n      0xf714ce\n      eq\n      tag_3\n      jumpi\n      jump(tag_2)\n    tag_1:\n    tag_2:\n      stop\n        /* \"mylearn.sol\":184:483  function withdraw(uint256 _withdrawAmount, address payable _to) public {... */\n    tag_3:\n      callvalue\n      dup1\n      iszero\n      tag_8\n      jumpi\n      revert(0x00, 0x00)\n    tag_8:\n      pop\n      tag_9\n      0x04\n      dup1\n      calldatasize\n      sub\n      dup2\n      add\n      swap1\n      tag_10\n      swap2\n      swap1\n      tag_11\n      jump\t// in\n    tag_10:\n      tag_12\n      jump\t// in\n    tag_9:\n      stop\n    tag_12:\n        /* \"mylearn.sol\":326:383  100000000000000000000000000000000000000000000000000000000 */\n      0x04140c78940f6a24fdffc78873d4490d2100000000000000\n        /* \"mylearn.sol\":307:322  _withdrawAmount */\n      dup3\n        /* \"mylearn.sol\":307:383  _withdrawAmount <= 100000000000000000000000000000000000000000000000000000000 */\n      gt\n      iszero\n        /* \"mylearn.sol\":299:384  require(_withdrawAmount <= 100000000000000000000000000000000000000000000000000000000) */\n      tag_14\n      jumpi\n      revert(0x00, 0x00)\n    tag_14:\n        /* \"mylearn.sol\":446:449  _to */\n      dup1\n        /* \"mylearn.sol\":446:458  _to.transfer */\n      0xffffffffffffffffffffffffffffffffffffffff\n      and\n        /* \"mylearn.sol\":446:475  _to.transfer(_withdrawAmount) */\n      0x08fc\n        /* \"mylearn.sol\":459:474  _withdrawAmount */\n      dup4\n        /* \"mylearn.sol\":446:475  _to.transfer(_withdrawAmount) */\n      swap1\n      dup2\n      iszero\n      mul\n      swap1\n      mload(0x40)\n      0x00\n      mload(0x40)\n      dup1\n      dup4\n      sub\n      dup2\n      dup6\n      dup9\n      dup9\n      call\n      swap4\n      pop\n      pop\n      pop\n      pop\n      iszero\n      dup1\n      iszero\n      tag_16\n      jumpi\n      returndatacopy(0x00, 0x00, returndatasize)\n      revert(0x00, returndatasize)\n    tag_16:\n      pop\n        /* \"mylearn.sol\":184:483  function withdraw(uint256 _withdrawAmount, address payable _to) public {... */\n      pop\n      pop\n      jump\t// out\n        /* \"#utility.yul\":88:205   */\n    tag_18:\n        /* \"#utility.yul\":197:198   */\n      0x00\n        /* \"#utility.yul\":194:195   */\n      0x00\n        /* \"#utility.yul\":187:199   */\n      revert\n        /* \"#utility.yul\":334:411   */\n    tag_20:\n        /* \"#utility.yul\":371:378   */\n      0x00\n        /* \"#utility.yul\":400:405   */\n      dup2\n        /* \"#utility.yul\":389:405   */\n      swap1\n      pop\n        /* \"#utility.yul\":334:411   */\n      swap2\n      swap1\n      pop\n      jump\t// out\n        /* \"#utility.yul\":417:539   */\n    tag_21:\n        /* \"#utility.yul\":490:514   */\n      tag_33\n        /* \"#utility.yul\":508:513   */\n      dup2\n        /* \"#utility.yul\":490:514   */\n      tag_20\n      jump\t// in\n    tag_33:\n        /* \"#utility.yul\":483:488   */\n      dup2\n        /* \"#utility.yul\":480:515   */\n      eq\n        /* \"#utility.yul\":470:533   */\n      tag_34\n      jumpi\n        /* \"#utility.yul\":529:530   */\n      0x00\n        /* \"#utility.yul\":526:527   */\n      0x00\n        /* \"#utility.yul\":519:531   */\n      revert\n        /* \"#utility.yul\":470:533   */\n    tag_34:\n        /* \"#utility.yul\":417:539   */\n      pop\n      jump\t// out\n        /* \"#utility.yul\":545:684   */\n    tag_22:\n        /* \"#utility.yul\":591:596   */\n      0x00\n        /* \"#utility.yul\":629:635   */\n      dup2\n        /* \"#utility.yul\":616:636   */\n      calldataload\n        /* \"#utility.yul\":607:636   */\n      swap1\n      pop\n        /* \"#utility.yul\":645:678   */\n      tag_36\n        /* \"#utility.yul\":672:677   */\n      dup2\n        /* \"#utility.yul\":645:678   */\n      tag_21\n      jump\t// in\n    tag_36:\n        /* \"#utility.yul\":545:684   */\n      swap3\n      swap2\n      pop\n      pop\n      jump\t// out\n        /* \"#utility.yul\":690:816   */\n    tag_23:\n        /* \"#utility.yul\":727:734   */\n      0x00\n        /* \"#utility.yul\":767:809   */\n      0xffffffffffffffffffffffffffffffffffffffff\n        /* \"#utility.yul\":760:765   */\n      dup3\n        /* \"#utility.yul\":756:810   */\n      and\n        /* \"#utility.yul\":745:810   */\n      swap1\n      pop\n        /* \"#utility.yul\":690:816   */\n      swap2\n      swap1\n      pop\n      jump\t// out\n        /* \"#utility.yul\":822:926   */\n    tag_24:\n        /* \"#utility.yul\":867:874   */\n      0x00\n        /* \"#utility.yul\":896:920   */\n      tag_39\n        /* \"#utility.yul\":914:919   */\n      dup3\n        /* \"#utility.yul\":896:920   */\n      tag_23\n      jump\t// in\n    tag_39:\n        /* \"#utility.yul\":885:920   */\n      swap1\n      pop\n        /* \"#utility.yul\":822:926   */\n      swap2\n      swap1\n      pop\n      jump\t// out\n        /* \"#utility.yul\":932:1070   */\n    tag_25:\n        /* \"#utility.yul\":1013:1045   */\n      tag_41\n        /* \"#utility.yul\":1039:1044   */\n      dup2\n        /* \"#utility.yul\":1013:1045   */\n      tag_24\n      jump\t// in\n    tag_41:\n        /* \"#utility.yul\":1006:1011   */\n      dup2\n        /* \"#utility.yul\":1003:1046   */\n      eq\n        /* \"#utility.yul\":993:1064   */\n      tag_42\n      jumpi\n        /* \"#utility.yul\":1060:1061   */\n      0x00\n        /* \"#utility.yul\":1057:1058   */\n      0x00\n        /* \"#utility.yul\":1050:1062   */\n      revert\n        /* \"#utility.yul\":993:1064   */\n    tag_42:\n        /* \"#utility.yul\":932:1070   */\n      pop\n      jump\t// out\n        /* \"#utility.yul\":1076:1231   */\n    tag_26:\n        /* \"#utility.yul\":1130:1135   */\n      0x00\n        /* \"#utility.yul\":1168:1174   */\n      dup2\n        /* \"#utility.yul\":1155:1175   */\n      calldataload\n        /* \"#utility.yul\":1146:1175   */\n      swap1\n      pop\n        /* \"#utility.yul\":1184:1225   */\n      tag_44\n        /* \"#utility.yul\":1219:1224   */\n      dup2\n        /* \"#utility.yul\":1184:1225   */\n      tag_25\n      jump\t// in\n    tag_44:\n        /* \"#utility.yul\":1076:1231   */\n      swap3\n      swap2\n      pop\n      pop\n      jump\t// out\n        /* \"#utility.yul\":1237:1727   */\n    tag_11:\n        /* \"#utility.yul\":1313:1319   */\n      0x00\n        /* \"#utility.yul\":1321:1327   */\n      0x00\n        /* \"#utility.yul\":1370:1372   */\n      0x40\n        /* \"#utility.yul\":1358:1367   */\n      dup4\n        /* \"#utility.yul\":1349:1356   */\n      dup6\n        /* \"#utility.yul\":1345:1368   */\n      sub\n        /* \"#utility.yul\":1341:1373   */\n      slt\n        /* \"#utility.yul\":1338:1457   */\n      iszero\n      tag_46\n      jumpi\n        /* \"#utility.yul\":1376:1455   */\n      tag_47\n      tag_18\n      jump\t// in\n    tag_47:\n        /* \"#utility.yul\":1338:1457   */\n    tag_46:\n        /* \"#utility.yul\":1496:1497   */\n      0x00\n        /* \"#utility.yul\":1521:1574   */\n      tag_48\n        /* \"#utility.yul\":1566:1573   */\n      dup6\n        /* \"#utility.yul\":1557:1563   */\n      dup3\n        /* \"#utility.yul\":1546:1555   */\n      dup7\n        /* \"#utility.yul\":1542:1564   */\n      add\n        /* \"#utility.yul\":1521:1574   */\n      tag_22\n      jump\t// in\n    tag_48:\n        /* \"#utility.yul\":1511:1574   */\n      swap3\n      pop\n        /* \"#utility.yul\":1467:1584   */\n      pop\n        /* \"#utility.yul\":1623:1625   */\n      0x20\n        /* \"#utility.yul\":1649:1710   */\n      tag_49\n        /* \"#utility.yul\":1702:1709   */\n      dup6\n        /* \"#utility.yul\":1693:1699   */\n      dup3\n        /* \"#utility.yul\":1682:1691   */\n      dup7\n        /* \"#utility.yul\":1678:1700   */\n      add\n        /* \"#utility.yul\":1649:1710   */\n      tag_26\n      jump\t// in\n    tag_49:\n        /* \"#utility.yul\":1639:1710   */\n      swap2\n      pop\n        /* \"#utility.yul\":1594:1720   */\n      pop\n        /* \"#utility.yul\":1237:1727   */\n      swap3\n      pop\n      swap3\n      swap1\n      pop\n      jump\t// out\n\n    auxdata: 0xa26469706673582212200b25778bf5a5b40b5e720aab7e655a640ab93adfd168af614e3116f49829626f64736f6c63430008220033\n}\n",
				"bytecode": {
					"linkReferences": {},
					"object": "6080604052348015600e575f5ffd5b506101bc8061001c5f395ff3fe608060405260043610610020575f3560e01c8062f714ce1461002357610021565b5b005b34801561002e575f5ffd5b5061004960048036038101906100449190610148565b61004b565b005b7704140c78940f6a24fdffc78873d4490d210000000000000082111561006f575f5ffd5b8073ffffffffffffffffffffffffffffffffffffffff166108fc8390811502906040515f60405180830381858888f193505050501580156100b2573d5f5f3e3d5ffd5b505050565b5f5ffd5b5f819050919050565b6100cd816100bb565b81146100d7575f5ffd5b50565b5f813590506100e8816100c4565b92915050565b5f73ffffffffffffffffffffffffffffffffffffffff82169050919050565b5f610117826100ee565b9050919050565b6101278161010d565b8114610131575f5ffd5b50565b5f813590506101428161011e565b92915050565b5f5f6040838503121561015e5761015d6100b7565b5b5f61016b858286016100da565b925050602061017c85828601610134565b915050925092905056fea26469706673582212200b25778bf5a5b40b5e720aab7e655a640ab93adfd168af614e3116f49829626f64736f6c63430008220033",
					"opcodes": "PUSH1 0x80 PUSH1 0x40 MSTORE CALLVALUE DUP1 ISZERO PUSH1 0xE JUMPI PUSH0 PUSH0 REVERT JUMPDEST POP PUSH2 0x1BC DUP1 PUSH2 0x1C PUSH0 CODECOPY PUSH0 RETURN INVALID PUSH1 0x80 PUSH1 0x40 MSTORE PUSH1 0x4 CALLDATASIZE LT PUSH2 0x20 JUMPI PUSH0 CALLDATALOAD PUSH1 0xE0 SHR DUP1 PUSH3 0xF714CE EQ PUSH2 0x23 JUMPI PUSH2 0x21 JUMP JUMPDEST JUMPDEST STOP JUMPDEST CALLVALUE DUP1 ISZERO PUSH2 0x2E JUMPI PUSH0 PUSH0 REVERT JUMPDEST POP PUSH2 0x49 PUSH1 0x4 DUP1 CALLDATASIZE SUB DUP2 ADD SWAP1 PUSH2 0x44 SWAP2 SWAP1 PUSH2 0x148 JUMP JUMPDEST PUSH2 0x4B JUMP JUMPDEST STOP JUMPDEST PUSH24 0x4140C78940F6A24FDFFC78873D4490D2100000000000000 DUP3 GT ISZERO PUSH2 0x6F JUMPI PUSH0 PUSH0 REVERT JUMPDEST DUP1 PUSH20 0xFFFFFFFFFFFFFFFFFFFFFFFFFFFFFFFFFFFFFFFF AND PUSH2 0x8FC DUP4 SWAP1 DUP2 ISZERO MUL SWAP1 PUSH1 0x40 MLOAD PUSH0 PUSH1 0x40 MLOAD DUP1 DUP4 SUB DUP2 DUP6 DUP9 DUP9 CALL SWAP4 POP POP POP POP ISZERO DUP1 ISZERO PUSH2 0xB2 JUMPI RETURNDATASIZE PUSH0 PUSH0 RETURNDATACOPY RETURNDATASIZE PUSH0 REVERT JUMPDEST POP POP POP JUMP JUMPDEST PUSH0 PUSH0 REVERT JUMPDEST PUSH0 DUP2 SWAP1 POP SWAP2 SWAP1 POP JUMP JUMPDEST PUSH2 0xCD DUP2 PUSH2 0xBB JUMP JUMPDEST DUP2 EQ PUSH2 0xD7 JUMPI PUSH0 PUSH0 REVERT JUMPDEST POP JUMP JUMPDEST PUSH0 DUP2 CALLDATALOAD SWAP1 POP PUSH2 0xE8 DUP2 PUSH2 0xC4 JUMP JUMPDEST SWAP3 SWAP2 POP POP JUMP JUMPDEST PUSH0 PUSH20 0xFFFFFFFFFFFFFFFFFFFFFFFFFFFFFFFFFFFFFFFF DUP3 AND SWAP1 POP SWAP2 SWAP1 POP JUMP JUMPDEST PUSH0 PUSH2 0x117 DUP3 PUSH2 0xEE JUMP JUMPDEST SWAP1 POP SWAP2 SWAP1 POP JUMP JUMPDEST PUSH2 0x127 DUP2 PUSH2 0x10D JUMP JUMPDEST DUP2 EQ PUSH2 0x131 JUMPI PUSH0 PUSH0 REVERT JUMPDEST POP JUMP JUMPDEST PUSH0 DUP2 CALLDATALOAD SWAP1 POP PUSH2 0x142 DUP2 PUSH2 0x11E JUMP JUMPDEST SWAP3 SWAP2 POP POP JUMP JUMPDEST PUSH0 PUSH0 PUSH1 0x40 DUP4 DUP6 SUB SLT ISZERO PUSH2 0x15E JUMPI PUSH2 0x15D PUSH2 0xB7 JUMP JUMPDEST JUMPDEST PUSH0 PUSH2 0x16B DUP6 DUP3 DUP7 ADD PUSH2 0xDA JUMP JUMPDEST SWAP3 POP POP PUSH1 0x20 PUSH2 0x17C DUP6 DUP3 DUP7 ADD PUSH2 0x134 JUMP JUMPDEST SWAP2 POP POP SWAP3 POP SWAP3 SWAP1 POP JUMP INVALID LOG2 PUSH5 0x6970667358 0x22 SLT KECCAK256 SIGNEXTEND 0x25 PUSH24 0x8BF5A5B40B5E720AAB7E655A640AB93ADFD168AF614E3116 DELEGATECALL SWAP9 0x29 PUSH3 0x6F6473 PUSH16 0x6C634300082200330000000000000000 "
				},
				"gasEstimates": {
					"creation": {
						"codeDepositCost": "88800",
						"executionCost": "133",
						"totalCost": "88933"
					},
					"external": {
						"": "84",
						"withdraw(uint256,address)": "infinite"
					}
				},
				"methodIdentifiers": {
					"withdraw(uint256,address)": "00f714ce"
				}
			},
			"storageLayout": {
				"storage": [],
				"types": null
			},
			"userdoc": {
				"kind": "user",
				"methods": {},
				"version": 1
			}
		}
	}
}