{
	"data": {
		"bytecode": {
			"linkReferences": {},
			"object": "6080604052348015600e575f5ffd5b506105cc8061001c5f395ff3fe608060405234801561000f575f5ffd5b506004361061003f575f3560e01c806301698ba9146100435780630c55699c146100615780638513eeb51461007f575b5f5ffd5b61004b610089565b6040516100589190610259565b60405180910390f35b610069610118565b6040516100769190610259565b60405180910390f35b6100876101a3565b005b60605f8054610097906102a6565b80601f01602080910402602001604051908101604052809291908181526020018280546100c3906102a6565b801561010e5780601f106100e55761010080835404028352916020019161010e565b820191905f5260205f20905b8154815290600101906020018083116100f157829003601f168201915b5050505050905090565b5f8054610124906102a6565b80601f0160208091040260200160405190810160405280929190818152602001828054610150906102a6565b801561019b5780601f106101725761010080835404028352916020019161019b565b820191905f5260205f20905b81548152906001019060200180831161017e57829003601f168201915b505050505081565b6040518060400160405280600581526020017f68656c6c6f0000000000000000000000000000000000000000000000000000008152505f90816101e691906104c7565b50565b5f81519050919050565b5f82825260208201905092915050565b8281835e5f83830152505050565b5f601f19601f8301169050919050565b5f61022b826101e9565b61023581856101f3565b9350610245818560208601610203565b61024e81610211565b840191505092915050565b5f6020820190508181035f8301526102718184610221565b905092915050565b7f4e487b71000000000000000000000000000000000000000000000000000000005f52602260045260245ffd5b5f60028204905060018216806102bd57607f821691505b6020821081036102d0576102cf610279565b5b50919050565b5f81519050919050565b7f4e487b71000000000000000000000000000000000000000000000000000000005f52604160045260245ffd5b5f819050815f5260205f209050919050565b5f6020601f8301049050919050565b5f82821b905092915050565b5f600883026103697fffffffffffffffffffffffffffffffffffffffffffffffffffffffffffffffff8261032e565b610373868361032e565b95508019841693508086168417925050509392505050565b5f819050919050565b5f819050919050565b5f6103b76103b26103ad8461038b565b610394565b61038b565b9050919050565b5f819050919050565b6103d08361039d565b6103e46103dc826103be565b84845461033a565b825550505050565b5f5f905090565b6103fb6103ec565b6104068184846103c7565b505050565b5f5b8281101561042c576104215f8284016103f3565b60018101905061040d565b505050565b601f82111561047f578282111561047e5761044b8161030d565b6104548361031f565b61045d8561031f565b602086101561046a575f90505b8083016104798284038261040b565b505050505b5b505050565b5f82821c905092915050565b5f61049f5f1984600802610484565b1980831691505092915050565b5f6104b78383610490565b9150826002028217905092915050565b6104d0826102d6565b67ffffffffffffffff8111156104e9576104e86102e0565b5b6104f382546102a6565b6104fe828285610431565b5f60209050601f83116001811461052f575f841561051d578287015190505b61052785826104ac565b86555061058e565b601f19841661053d8661030d565b5f5b828110156105645784890151825560018201915060208501945060208101905061053f565b86831015610581578489015161057d601f891682610490565b8355505b6001600288020188555050505b50505050505056fea2646970667358221220ac11b9640fe258b296c38682304a7283bf46f5e9fcb0c23cc2893eb4e962cb8864736f6c63430008220033",
			"opcodes": "PUSH1 0x80 PUSH1 0x40 MSTORE CALLVALUE DUP1 ISZERO PUSH1 0xE JUMPI PUSH0 PUSH0 REVERT JUMPDEST POP PUSH2 0x5CC DUP1 PUSH2 0x1C PUSH0 CODECOPY PUSH0 RETURN INVALID PUSH1 0x80 PUSH1 0x40 MSTORE CALLVALUE DUP1 ISZERO PUSH2 0xF JUMPI PUSH0 PUSH0 REVERT JUMPDEST POP PUSH1 0x4 CALLDATASIZE LT PUSH2 0x3F JUMPI PUSH0 CALLDATALOAD PUSH1 0xE0 SHR DUP1 PUSH4 0x1698BA9 EQ PUSH2 0x43 JUMPI DUP1 PUSH4 0xC55699C EQ PUSH2 0x61 JUMPI DUP1 PUSH4 0x8513EEB5 EQ PUSH2 0x7F JUMPI JUMPDEST PUSH0 PUSH0 REVERT JUMPDEST PUSH2 0x4B PUSH2 0x89 JUMP JUMPDEST PUSH1 0x40 MLOAD PUSH2 0x58 SWAP2 SWAP1 PUSH2 0x259 JUMP JUMPDEST PUSH1 0x40 MLOAD DUP1 SWAP2 SUB SWAP1 RETURN JUMPDEST PUSH2 0x69 PUSH2 0x118 JUMP JUMPDEST PUSH1 0x40 MLOAD PUSH2 0x76 SWAP2 SWAP1 PUSH2 0x259 JUMP JUMPDEST PUSH1 0x40 MLOAD DUP1 SWAP2 SUB SWAP1 RETURN JUMPDEST PUSH2 0x87 PUSH2 0x1A3 JUMP JUMPDEST STOP JUMPDEST PUSH1 0x60 PUSH0 DUP1 SLOAD PUSH2 0x97 SWAP1 PUSH2 0x2A6 JUMP JUMPDEST DUP1 PUSH1 0x1F ADD PUSH1 0x20 DUP1 SWAP2 DIV MUL PUSH1 0x20 ADD PUSH1 0x40 MLOAD SWAP1 DUP2 ADD PUSH1 0x40 MSTORE DUP1 SWAP3 SWAP2 SWAP1 DUP2 DUP2 MSTORE PUSH1 0x20 ADD DUP3 DUP1 SLOAD PUSH2 0xC3 SWAP1 PUSH2 0x2A6 JUMP JUMPDEST DUP1 ISZERO PUSH2 0x10E JUMPI DUP1 PUSH1 0x1F LT PUSH2 0xE5 JUMPI PUSH2 0x100 DUP1 DUP4 SLOAD DIV MUL DUP4 MSTORE SWAP2 PUSH1 0x20 ADD SWAP2 PUSH2 0x10E JUMP JUMPDEST DUP3 ADD SWAP2 SWAP1 PUSH0 MSTORE PUSH1 0x20 PUSH0 KECCAK256 SWAP1 JUMPDEST DUP2 SLOAD DUP2 MSTORE SWAP1 PUSH1 0x1 ADD SWAP1 PUSH1 0x20 ADD DUP1 DUP4 GT PUSH2 0xF1 JUMPI DUP3 SWAP1 SUB PUSH1 0x1F AND DUP3 ADD SWAP2 JUMPDEST POP POP POP POP POP SWAP1 POP SWAP1 JUMP JUMPDEST PUSH0 DUP1 SLOAD PUSH2 0x124 SWAP1 PUSH2 0x2A6 JUMP JUMPDEST DUP1 PUSH1 0x1F ADD PUSH1 0x20 DUP1 SWAP2 DIV MUL PUSH1 0x20 ADD PUSH1 0x40 MLOAD SWAP1 DUP2 ADD PUSH1 0x40 MSTORE DUP1 SWAP3 SWAP2 SWAP1 DUP2 DUP2 MSTORE PUSH1 0x20 ADD DUP3 DUP1 SLOAD PUSH2 0x150 SWAP1 PUSH2 0x2A6 JUMP JUMPDEST DUP1 ISZERO PUSH2 0x19B JUMPI DUP1 PUSH1 0x1F LT PUSH2 0x172 JUMPI PUSH2 0x100 DUP1 DUP4 SLOAD DIV MUL DUP4 MSTORE SWAP2 PUSH1 0x20 ADD SWAP2 PUSH2 0x19B JUMP JUMPDEST DUP3 ADD SWAP2 SWAP1 PUSH0 MSTORE PUSH1 0x20 PUSH0 KECCAK256 SWAP1 JUMPDEST DUP2 SLOAD DUP2 MSTORE SWAP1 PUSH1 0x1 ADD SWAP1 PUSH1 0x20 ADD DUP1 DUP4 GT PUSH2 0x17E JUMPI DUP3 SWAP1 SUB PUSH1 0x1F AND DUP3 ADD SWAP2 JUMPDEST POP POP POP POP POP DUP2 JUMP JUMPDEST PUSH1 0x40 MLOAD DUP1 PUSH1 0x40 ADD PUSH1 0x40 MSTORE DUP1 PUSH1 0x5 DUP2 MSTORE PUSH1 0x20 ADD PUSH32 0x68656C6C6F000000000000000000000000000000000000000000000000000000 DUP2 MSTORE POP PUSH0 SWAP1 DUP2 PUSH2 0x1E6 SWAP2 SWAP1 PUSH2 0x4C7 JUMP JUMPDEST POP JUMP JUMPDEST PUSH0 DUP2 MLOAD SWAP1 POP SWAP2 SWAP1 POP JUMP JUMPDEST PUSH0 DUP3 DUP3 MSTORE PUSH1 0x20 DUP3 ADD SWAP1 POP SWAP3 SWAP2 POP POP JUMP JUMPDEST DUP3 DUP2 DUP4 MCOPY PUSH0 DUP4 DUP4 ADD MSTORE POP POP POP JUMP JUMPDEST PUSH0 PUSH1 0x1F NOT PUSH1 0x1F DUP4 ADD AND SWAP1 POP SWAP2 SWAP1 POP JUMP JUMPDEST PUSH0 PUSH2 0x22B DUP3 PUSH2 0x1E9 JUMP JUMPDEST PUSH2 0x235 DUP2 DUP6 PUSH2 0x1F3 JUMP JUMPDEST SWAP4 POP PUSH2 0x245 DUP2 DUP6 PUSH1 0x20 DUP7 ADD PUSH2 0x203 JUMP JUMPDEST PUSH2 0x24E DUP2 PUSH2 0x211 JUMP JUMPDEST DUP5 ADD SWAP2 POP POP SWAP3 SWAP2 POP POP JUMP JUMPDEST PUSH0 PUSH1 0x20 DUP3 ADD SWAP1 POP DUP2 DUP2 SUB PUSH0 DUP4 ADD MSTORE PUSH2 0x271 DUP2 DUP5 PUSH2 0x221 JUMP JUMPDEST SWAP1 POP SWAP3 SWAP2 POP POP JUMP JUMPDEST PUSH32 0x4E487B7100000000000000000000000000000000000000000000000000000000 PUSH0 MSTORE PUSH1 0x22 PUSH1 0x4 MSTORE PUSH1 0x24 PUSH0 REVERT JUMPDEST PUSH0 PUSH1 0x2 DUP3 DIV SWAP1 POP PUSH1 0x1 DUP3 AND DUP1 PUSH2 0x2BD JUMPI PUSH1 0x7F DUP3 AND SWAP2 POP JUMPDEST PUSH1 0x20 DUP3 LT DUP2 SUB PUSH2 0x2D0 JUMPI PUSH2 0x2CF PUSH2 0x279 JUMP JUMPDEST JUMPDEST POP SWAP2 SWAP1 POP JUMP JUMPDEST PUSH0 DUP2 MLOAD SWAP1 POP SWAP2 SWAP1 POP JUMP JUMPDEST PUSH32 0x4E487B7100000000000000000000000000000000000000000000000000000000 PUSH0 MSTORE PUSH1 0x41 PUSH1 0x4 MSTORE PUSH1 0x24 PUSH0 REVERT JUMPDEST PUSH0 DUP2 SWAP1 POP DUP2 PUSH0 MSTORE PUSH1 0x20 PUSH0 KECCAK256 SWAP1 POP SWAP2 SWAP1 POP JUMP JUMPDEST PUSH0 PUSH1 0x20 PUSH1 0x1F DUP4 ADD DIV SWAP1 POP SWAP2 SWAP1 POP JUMP JUMPDEST PUSH0 DUP3 DUP3 SHL SWAP1 POP SWAP3 SWAP2 POP POP JUMP JUMPDEST PUSH0 PUSH1 0x8 DUP4 MUL PUSH2 0x369 PUSH32 0xFFFFFFFFFFFFFFFFFFFFFFFFFFFFFFFFFFFFFFFFFFFFFFFFFFFFFFFFFFFFFFFF DUP3 PUSH2 0x32E JUMP JUMPDEST PUSH2 0x373 DUP7 DUP4 PUSH2 0x32E JUMP JUMPDEST SWAP6 POP DUP1 NOT DUP5 AND SWAP4 POP DUP1 DUP7 AND DUP5 OR SWAP3 POP POP POP SWAP4 SWAP3 POP POP POP JUMP JUMPDEST PUSH0 DUP2 SWAP1 POP SWAP2 SWAP1 POP JUMP JUMPDEST PUSH0 DUP2 SWAP1 POP SWAP2 SWAP1 POP JUMP JUMPDEST PUSH0 PUSH2 0x3B7 PUSH2 0x3B2 PUSH2 0x3AD DUP5 PUSH2 0x38B JUMP JUMPDEST PUSH2 0x394 JUMP JUMPDEST PUSH2 0x38B JUMP JUMPDEST SWAP1 POP SWAP2 SWAP1 POP JUMP JUMPDEST PUSH0 DUP2 SWAP1 POP SWAP2 SWAP1 POP JUMP JUMPDEST PUSH2 0x3D0 DUP4 PUSH2 0x39D JUMP JUMPDEST PUSH2 0x3E4 PUSH2 0x3DC DUP3 PUSH2 0x3BE JUMP JUMPDEST DUP5 DUP5 SLOAD PUSH2 0x33A JUMP JUMPDEST DUP3 SSTORE POP POP POP POP JUMP JUMPDEST PUSH0 PUSH0 SWAP1 POP SWAP1 JUMP JUMPDEST PUSH2 0x3FB PUSH2 0x3EC JUMP JUMPDEST PUSH2 0x406 DUP2 DUP5 DUP5 PUSH2 0x3C7 JUMP JUMPDEST POP POP POP JUMP JUMPDEST PUSH0 JUMPDEST DUP3 DUP2 LT ISZERO PUSH2 0x42C JUMPI PUSH2 0x421 PUSH0 DUP3 DUP5 ADD PUSH2 0x3F3 JUMP JUMPDEST PUSH1 0x1 DUP2 ADD SWAP1 POP PUSH2 0x40D JUMP JUMPDEST POP POP POP JUMP JUMPDEST PUSH1 0x1F DUP3 GT ISZERO PUSH2 0x47F JUMPI DUP3 DUP3 GT ISZERO PUSH2 0x47E JUMPI PUSH2 0x44B DUP2 PUSH2 0x30D JUMP JUMPDEST PUSH2 0x454 DUP4 PUSH2 0x31F JUMP JUMPDEST PUSH2 0x45D DUP6 PUSH2 0x31F JUMP JUMPDEST PUSH1 0x20 DUP7 LT ISZERO PUSH2 0x46A JUMPI PUSH0 SWAP1 POP JUMPDEST DUP1 DUP4 ADD PUSH2 0x479 DUP3 DUP5 SUB DUP3 PUSH2 0x40B JUMP JUMPDEST POP POP POP POP JUMPDEST JUMPDEST POP POP POP JUMP JUMPDEST PUSH0 DUP3 DUP3 SHR SWAP1 POP SWAP3 SWAP2 POP POP JUMP JUMPDEST PUSH0 PUSH2 0x49F PUSH0 NOT DUP5 PUSH1 0x8 MUL PUSH2 0x484 JUMP JUMPDEST NOT DUP1 DUP4 AND SWAP2 POP POP SWAP3 SWAP2 POP POP JUMP JUMPDEST PUSH0 PUSH2 0x4B7 DUP4 DUP4 PUSH2 0x490 JUMP JUMPDEST SWAP2 POP DUP3 PUSH1 0x2 MUL DUP3 OR SWAP1 POP SWAP3 SWAP2 POP POP JUMP JUMPDEST PUSH2 0x4D0 DUP3 PUSH2 0x2D6 JUMP JUMPDEST PUSH8 0xFFFFFFFFFFFFFFFF DUP2 GT ISZERO PUSH2 0x4E9 JUMPI PUSH2 0x4E8 PUSH2 0x2E0 JUMP JUMPDEST JUMPDEST PUSH2 0x4F3 DUP3 SLOAD PUSH2 0x2A6 JUMP JUMPDEST PUSH2 0x4FE DUP3 DUP3 DUP6 PUSH2 0x431 JUMP JUMPDEST PUSH0 PUSH1 0x20 SWAP1 POP PUSH1 0x1F DUP4 GT PUSH1 0x1 DUP2 EQ PUSH2 0x52F JUMPI PUSH0 DUP5 ISZERO PUSH2 0x51D JUMPI DUP3 DUP8 ADD MLOAD SWAP1 POP JUMPDEST PUSH2 0x527 DUP6 DUP3 PUSH2 0x4AC JUMP JUMPDEST DUP7 SSTORE POP PUSH2 0x58E JUMP JUMPDEST PUSH1 0x1F NOT DUP5 AND PUSH2 0x53D DUP7 PUSH2 0x30D JUMP JUMPDEST PUSH0 JUMPDEST DUP3 DUP2 LT ISZERO PUSH2 0x564 JUMPI DUP5 DUP10 ADD MLOAD DUP3 SSTORE PUSH1 0x1 DUP3 ADD SWAP2 POP PUSH1 0x20 DUP6 ADD SWAP5 POP PUSH1 0x20 DUP2 ADD SWAP1 POP PUSH2 0x53F JUMP JUMPDEST DUP7 DUP4 LT ISZERO PUSH2 0x581 JUMPI DUP5 DUP10 ADD MLOAD PUSH2 0x57D PUSH1 0x1F DUP10 AND DUP3 PUSH2 0x490 JUMP JUMPDEST DUP4 SSTORE POP JUMPDEST PUSH1 0x1 PUSH1 0x2 DUP9 MUL ADD DUP9 SSTORE POP POP POP JUMPDEST POP POP POP POP POP POP JUMP INVALID LOG2 PUSH5 0x6970667358 0x22 SLT KECCAK256 0xAC GT 0xB9 PUSH5 0xFE258B296 0xC3 DUP7 DUP3 ADDRESS BLOBBASEFEE PUSH19 0x83BF46F5E9FCB0C23CC2893EB4E962CB886473 PUSH16 0x6C634300082200330000000000000000 "
		},
		"gasEstimates": {
			"creation": {
				"codeDepositCost": "296800",
				"executionCost": "335",
				"totalCost": "297135"
			},
			"external": {
				"my_read()": "infinite",
				"my_write()": "infinite",
				"x()": "infinite"
			}
		},
		"methodIdentifiers": {
			"my_read()": "01698ba9",
			"my_write()": "8513eeb5",
			"x()": "0c55699c"
		}
	},
	"abi": [
		{
			"inputs": [],
			"name": "my_read",
			"outputs": [
				{
					"internalType": "bytes",
					"name": "",
					"type": "bytes"
				}
			],
			"stateMutability": "nonpayable",
			"type": "function"
		},
		{
			"inputs": [],
			"name": "my_write",
			"outputs": [],
			"stateMutability": "nonpayable",
			"type": "function"
		},
		{
			"inputs": [],
			"name": "x",
			"outputs": [
				{
					"internalType": "bytes",
					"name": "",
					"type": "bytes"
				}
			],
			"stateMutability": "view",
			"type": "function"
		}
	]
}