{
	"data": {
		"bytecode": {
			"linkReferences": {},
			"object": "60806040527f626c61636b0000000000000000000000000000000000000000000000000000005f5f6101000a81548167ffffffffffffffff021916908360c01c02179055506040518060400160405280600381526020017f31323300000000000000000000000000000000000000000000000000000000008152506001908161008891906102e8565b50348015610094575f5ffd5b506103b7565b5f81519050919050565b7f4e487b71000000000000000000000000000000000000000000000000000000005f52604160045260245ffd5b7f4e487b71000000000000000000000000000000000000000000000000000000005f52602260045260245ffd5b5f600282049050600182168061011557607f821691505b602082108103610128576101276100d1565b5b50919050565b5f819050815f5260205f209050919050565b5f6020601f8301049050919050565b5f82821b905092915050565b5f6008830261018a7fffffffffffffffffffffffffffffffffffffffffffffffffffffffffffffffff8261014f565b610194868361014f565b95508019841693508086168417925050509392505050565b5f819050919050565b5f819050919050565b5f6101d86101d36101ce846101ac565b6101b5565b6101ac565b9050919050565b5f819050919050565b6101f1836101be565b6102056101fd826101df565b84845461015b565b825550505050565b5f5f905090565b61021c61020d565b6102278184846101e8565b505050565b5f5b8281101561024d576102425f828401610214565b60018101905061022e565b505050565b601f8211156102a0578282111561029f5761026c8161012e565b61027583610140565b61027e85610140565b602086101561028b575f90505b80830161029a8284038261022c565b505050505b5b505050565b5f82821c905092915050565b5f6102c05f19846008026102a5565b1980831691505092915050565b5f6102d883836102b1565b9150826002028217905092915050565b6102f18261009a565b67ffffffffffffffff81111561030a576103096100a4565b5b61031482546100fe565b61031f828285610252565b5f60209050601f831160018114610350575f841561033e578287015190505b61034885826102cd565b8655506103af565b601f19841661035e8661012e565b5f5b8281101561038557848901518255600182019150602085019450602081019050610360565b868310156103a2578489015161039e601f8916826102b1565b8355505b6001600288020188555050505b505050505050565b610164806103c45f395ff3fe608060405234801561000f575f5ffd5b5060043610610034575f3560e01c8063b8453b4b14610038578063f7eada7114610056575b5f5ffd5b610040610074565b60405161004d91906100b8565b60405180910390f35b61005e610089565b60405161006b91906100b8565b60405180910390f35b5f60018054610082906100fe565b9050905090565b5f5f5f9054906101000a905050600860ff16905090565b5f819050919050565b6100b2816100a0565b82525050565b5f6020820190506100cb5f8301846100a9565b92915050565b7f4e487b71000000000000000000000000000000000000000000000000000000005f52602260045260245ffd5b5f600282049050600182168061011557607f821691505b602082108103610128576101276100d1565b5b5091905056fea2646970667358221220bac422a0fbd3c66ad2056be10df841c461f06666a8311a57cd005a5fda09d0a164736f6c63430008220033",
			"opcodes": "PUSH1 0x80 PUSH1 0x40 MSTORE PUSH32 0x626C61636B000000000000000000000000000000000000000000000000000000 PUSH0 PUSH0 PUSH2 0x100 EXP DUP2 SLOAD DUP2 PUSH8 0xFFFFFFFFFFFFFFFF MUL NOT AND SWAP1 DUP4 PUSH1 0xC0 SHR MUL OR SWAP1 SSTORE POP PUSH1 0x40 MLOAD DUP1 PUSH1 0x40 ADD PUSH1 0x40 MSTORE DUP1 PUSH1 0x3 DUP2 MSTORE PUSH1 0x20 ADD PUSH32 0x3132330000000000000000000000000000000000000000000000000000000000 DUP2 MSTORE POP PUSH1 0x1 SWAP1 DUP2 PUSH2 0x88 SWAP2 SWAP1 PUSH2 0x2E8 JUMP JUMPDEST POP CALLVALUE DUP1 ISZERO PUSH2 0x94 JUMPI PUSH0 PUSH0 REVERT JUMPDEST POP PUSH2 0x3B7 JUMP JUMPDEST PUSH0 DUP2 MLOAD SWAP1 POP SWAP2 SWAP1 POP JUMP JUMPDEST PUSH32 0x4E487B7100000000000000000000000000000000000000000000000000000000 PUSH0 MSTORE PUSH1 0x41 PUSH1 0x4 MSTORE PUSH1 0x24 PUSH0 REVERT JUMPDEST PUSH32 0x4E487B7100000000000000000000000000000000000000000000000000000000 PUSH0 MSTORE PUSH1 0x22 PUSH1 0x4 MSTORE PUSH1 0x24 PUSH0 REVERT JUMPDEST PUSH0 PUSH1 0x2 DUP3 DIV SWAP1 POP PUSH1 0x1 DUP3 AND DUP1 PUSH2 0x115 JUMPI PUSH1 0x7F DUP3 AND SWAP2 POP JUMPDEST PUSH1 0x20 DUP3 LT DUP2 SUB PUSH2 0x128 JUMPI PUSH2 0x127 PUSH2 0xD1 JUMP JUMPDEST JUMPDEST POP SWAP2 SWAP1 POP JUMP JUMPDEST PUSH0 DUP2 SWAP1 POP DUP2 PUSH0 MSTORE PUSH1 0x20 PUSH0 KECCAK256 SWAP1 POP SWAP2 SWAP1 POP JUMP JUMPDEST PUSH0 PUSH1 0x20 PUSH1 0x1F DUP4 ADD DIV SWAP1 POP SWAP2 SWAP1 POP JUMP JUMPDEST PUSH0 DUP3 DUP3 SHL SWAP1 POP SWAP3 SWAP2 POP POP JUMP JUMPDEST PUSH0 PUSH1 0x8 DUP4 MUL PUSH2 0x18A PUSH32 0xFFFFFFFFFFFFFFFFFFFFFFFFFFFFFFFFFFFFFFFFFFFFFFFFFFFFFFFFFFFFFFFF DUP3 PUSH2 0x14F JUMP JUMPDEST PUSH2 0x194 DUP7 DUP4 PUSH2 0x14F JUMP JUMPDEST SWAP6 POP DUP1 NOT DUP5 AND SWAP4 POP DUP1 DUP7 AND DUP5 OR SWAP3 POP POP POP SWAP4 SWAP3 POP POP POP JUMP JUMPDEST PUSH0 DUP2 SWAP1 POP SWAP2 SWAP1 POP JUMP JUMPDEST PUSH0 DUP2 SWAP1 POP SWAP2 SWAP1 POP JUMP JUMPDEST PUSH0 PUSH2 0x1D8 PUSH2 0x1D3 PUSH2 0x1CE DUP5 PUSH2 0x1AC JUMP JUMPDEST PUSH2 0x1B5 JUMP JUMPDEST PUSH2 0x1AC JUMP JUMPDEST SWAP1 POP SWAP2 SWAP1 POP JUMP JUMPDEST PUSH0 DUP2 SWAP1 POP SWAP2 SWAP1 POP JUMP JUMPDEST PUSH2 0x1F1 DUP4 PUSH2 0x1BE JUMP JUMPDEST PUSH2 0x205 PUSH2 0x1FD DUP3 PUSH2 0x1DF JUMP JUMPDEST DUP5 DUP5 SLOAD PUSH2 0x15B JUMP JUMPDEST DUP3 SSTORE POP POP POP POP JUMP JUMPDEST PUSH0 PUSH0 SWAP1 POP SWAP1 JUMP JUMPDEST PUSH2 0x21C PUSH2 0x20D JUMP JUMPDEST PUSH2 0x227 DUP2 DUP5 DUP5 PUSH2 0x1E8 JUMP JUMPDEST POP POP POP JUMP JUMPDEST PUSH0 JUMPDEST DUP3 DUP2 LT ISZERO PUSH2 0x24D JUMPI PUSH2 0x242 PUSH0 DUP3 DUP5 ADD PUSH2 0x214 JUMP JUMPDEST PUSH1 0x1 DUP2 ADD SWAP1 POP PUSH2 0x22E JUMP JUMPDEST POP POP POP JUMP JUMPDEST PUSH1 0x1F DUP3 GT ISZERO PUSH2 0x2A0 JUMPI DUP3 DUP3 GT ISZERO PUSH2 0x29F JUMPI PUSH2 0x26C DUP2 PUSH2 0x12E JUMP JUMPDEST PUSH2 0x275 DUP4 PUSH2 0x140 JUMP JUMPDEST PUSH2 0x27E DUP6 PUSH2 0x140 JUMP JUMPDEST PUSH1 0x20 DUP7 LT ISZERO PUSH2 0x28B JUMPI PUSH0 SWAP1 POP JUMPDEST DUP1 DUP4 ADD PUSH2 0x29A DUP3 DUP5 SUB DUP3 PUSH2 0x22C JUMP JUMPDEST POP POP POP POP JUMPDEST JUMPDEST POP POP POP JUMP JUMPDEST PUSH0 DUP3 DUP3 SHR SWAP1 POP SWAP3 SWAP2 POP POP JUMP JUMPDEST PUSH0 PUSH2 0x2C0 PUSH0 NOT DUP5 PUSH1 0x8 MUL PUSH2 0x2A5 JUMP JUMPDEST NOT DUP1 DUP4 AND SWAP2 POP POP SWAP3 SWAP2 POP POP JUMP JUMPDEST PUSH0 PUSH2 0x2D8 DUP4 DUP4 PUSH2 0x2B1 JUMP JUMPDEST SWAP2 POP DUP3 PUSH1 0x2 MUL DUP3 OR SWAP1 POP SWAP3 SWAP2 POP POP JUMP JUMPDEST PUSH2 0x2F1 DUP3 PUSH2 0x9A JUMP JUMPDEST PUSH8 0xFFFFFFFFFFFFFFFF DUP2 GT ISZERO PUSH2 0x30A JUMPI PUSH2 0x309 PUSH2 0xA4 JUMP JUMPDEST JUMPDEST PUSH2 0x314 DUP3 SLOAD PUSH2 0xFE JUMP JUMPDEST PUSH2 0x31F DUP3 DUP3 DUP6 PUSH2 0x252 JUMP JUMPDEST PUSH0 PUSH1 0x20 SWAP1 POP PUSH1 0x1F DUP4 GT PUSH1 0x1 DUP2 EQ PUSH2 0x350 JUMPI PUSH0 DUP5 ISZERO PUSH2 0x33E JUMPI DUP3 DUP8 ADD MLOAD SWAP1 POP JUMPDEST PUSH2 0x348 DUP6 DUP3 PUSH2 0x2CD JUMP JUMPDEST DUP7 SSTORE POP PUSH2 0x3AF JUMP JUMPDEST PUSH1 0x1F NOT DUP5 AND PUSH2 0x35E DUP7 PUSH2 0x12E JUMP JUMPDEST PUSH0 JUMPDEST DUP3 DUP2 LT ISZERO PUSH2 0x385 JUMPI DUP5 DUP10 ADD MLOAD DUP3 SSTORE PUSH1 0x1 DUP3 ADD SWAP2 POP PUSH1 0x20 DUP6 ADD SWAP5 POP PUSH1 0x20 DUP2 ADD SWAP1 POP PUSH2 0x360 JUMP JUMPDEST DUP7 DUP4 LT ISZERO PUSH2 0x3A2 JUMPI DUP5 DUP10 ADD MLOAD PUSH2 0x39E PUSH1 0x1F DUP10 AND DUP3 PUSH2 0x2B1 JUMP JUMPDEST DUP4 SSTORE POP JUMPDEST PUSH1 0x1 PUSH1 0x2 DUP9 MUL ADD DUP9 SSTORE POP POP POP JUMPDEST POP POP POP POP POP POP JUMP JUMPDEST PUSH2 0x164 DUP1 PUSH2 0x3C4 PUSH0 CODECOPY PUSH0 RETURN INVALID PUSH1 0x80 PUSH1 0x40 MSTORE CALLVALUE DUP1 ISZERO PUSH2 0xF JUMPI PUSH0 PUSH0 REVERT JUMPDEST POP PUSH1 0x4 CALLDATASIZE LT PUSH2 0x34 JUMPI PUSH0 CALLDATALOAD PUSH1 0xE0 SHR DUP1 PUSH4 0xB8453B4B EQ PUSH2 0x38 JUMPI DUP1 PUSH4 0xF7EADA71 EQ PUSH2 0x56 JUMPI JUMPDEST PUSH0 PUSH0 REVERT JUMPDEST PUSH2 0x40 PUSH2 0x74 JUMP JUMPDEST PUSH1 0x40 MLOAD PUSH2 0x4D SWAP2 SWAP1 PUSH2 0xB8 JUMP JUMPDEST PUSH1 0x40 MLOAD DUP1 SWAP2 SUB SWAP1 RETURN JUMPDEST PUSH2 0x5E PUSH2 0x89 JUMP JUMPDEST PUSH1 0x40 MLOAD PUSH2 0x6B SWAP2 SWAP1 PUSH2 0xB8 JUMP JUMPDEST PUSH1 0x40 MLOAD DUP1 SWAP2 SUB SWAP1 RETURN JUMPDEST PUSH0 PUSH1 0x1 DUP1 SLOAD PUSH2 0x82 SWAP1 PUSH2 0xFE JUMP JUMPDEST SWAP1 POP SWAP1 POP SWAP1 JUMP JUMPDEST PUSH0 PUSH0 PUSH0 SWAP1 SLOAD SWAP1 PUSH2 0x100 EXP SWAP1 POP POP PUSH1 0x8 PUSH1 0xFF AND SWAP1 POP SWAP1 JUMP JUMPDEST PUSH0 DUP2 SWAP1 POP SWAP2 SWAP1 POP JUMP JUMPDEST PUSH2 0xB2 DUP2 PUSH2 0xA0 JUMP JUMPDEST DUP3 MSTORE POP POP JUMP JUMPDEST PUSH0 PUSH1 0x20 DUP3 ADD SWAP1 POP PUSH2 0xCB PUSH0 DUP4 ADD DUP5 PUSH2 0xA9 JUMP JUMPDEST SWAP3 SWAP2 POP POP JUMP JUMPDEST PUSH32 0x4E487B7100000000000000000000000000000000000000000000000000000000 PUSH0 MSTORE PUSH1 0x22 PUSH1 0x4 MSTORE PUSH1 0x24 PUSH0 REVERT JUMPDEST PUSH0 PUSH1 0x2 DUP3 DIV SWAP1 POP PUSH1 0x1 DUP3 AND DUP1 PUSH2 0x115 JUMPI PUSH1 0x7F DUP3 AND SWAP2 POP JUMPDEST PUSH1 0x20 DUP3 LT DUP2 SUB PUSH2 0x128 JUMPI PUSH2 0x127 PUSH2 0xD1 JUMP JUMPDEST JUMPDEST POP SWAP2 SWAP1 POP JUMP INVALID LOG2 PUSH5 0x6970667358 0x22 SLT KECCAK256 0xBA 0xC4 0x22 LOG0 EXTSTATICCALL 0xD3 0xC6 PUSH11 0xD2056BE10DF841C461F066 PUSH7 0xA8311A57CD005A PUSH0 0xDA MULMOD 0xD0 LOG1 PUSH5 0x736F6C6343 STOP ADDMOD 0x22 STOP CALLER "
		},
		"gasEstimates": {
			"creation": {
				"codeDepositCost": "71200",
				"executionCost": "infinite",
				"totalCost": "infinite"
			},
			"external": {
				"my_draw()": "2468",
				"my_light()": "2542"
			}
		},
		"methodIdentifiers": {
			"my_draw()": "f7eada71",
			"my_light()": "b8453b4b"
		}
	},
	"abi": [
		{
			"inputs": [],
			"name": "my_draw",
			"outputs": [
				{
					"internalType": "uint256",
					"name": "",
					"type": "uint256"
				}
			],
			"stateMutability": "view",
			"type": "function"
		},
		{
			"inputs": [],
			"name": "my_light",
			"outputs": [
				{
					"internalType": "uint256",
					"name": "",
					"type": "uint256"
				}
			],
			"stateMutability": "view",
			"type": "function"
		}
	]
}