{
	"data": {
		"bytecode": {
			"linkReferences": {},
			"object": "6080604052348015600e575f5ffd5b506102b28061001c5f395ff3fe608060405234801561000f575f5ffd5b506004361061004a575f3560e01c8063520a8a9e1461004e5780638513eeb51461006c578063dedc907214610076578063eec3769114610094575b5f5ffd5b6100566100b2565b604051610063919061020e565b60405180910390f35b6100746100fc565b005b61007e61011a565b60405161008b9190610236565b60405180910390f35b61009c610136565b6040516100a99190610236565b60405180910390f35b6100ba61013e565b5f6004806020026040519081016040528092919082600480156100f2576020028201915b8154815260200190600101908083116100de575b5050505050905090565b6101f45f6002600481106101135761011261024f565b5b0181905550565b5f5f60026004811061012f5761012e61024f565b5b0154905090565b5f6004905090565b6040518060800160405280600490602082028036833780820191505090505090565b5f60049050919050565b5f81905092915050565b5f819050919050565b5f819050919050565b61018f8161017d565b82525050565b5f6101a08383610186565b60208301905092915050565b5f602082019050919050565b6101c181610160565b6101cb818461016a565b92506101d682610174565b805f5b838110156102065781516101ed8782610195565b96506101f8836101ac565b9250506001810190506101d9565b505050505050565b5f6080820190506102215f8301846101b8565b92915050565b6102308161017d565b82525050565b5f6020820190506102495f830184610227565b92915050565b7f4e487b71000000000000000000000000000000000000000000000000000000005f52603260045260245ffdfea26469706673582212208b7eb68184011ebf340281864d999b9548ee8d588a7fbefc3abce6a02b8b047364736f6c63430008220033",
			"opcodes": "PUSH1 0x80 PUSH1 0x40 MSTORE CALLVALUE DUP1 ISZERO PUSH1 0xE JUMPI PUSH0 PUSH0 REVERT JUMPDEST POP PUSH2 0x2B2 DUP1 PUSH2 0x1C PUSH0 CODECOPY PUSH0 RETURN INVALID PUSH1 0x80 PUSH1 0x40 MSTORE CALLVALUE DUP1 ISZERO PUSH2 0xF JUMPI PUSH0 PUSH0 REVERT JUMPDEST POP PUSH1 0x4 CALLDATASIZE LT PUSH2 0x4A JUMPI PUSH0 CALLDATALOAD PUSH1 0xE0 SHR DUP1 PUSH4 0x520A8A9E EQ PUSH2 0x4E JUMPI DUP1 PUSH4 0x8513EEB5 EQ PUSH2 0x6C JUMPI DUP1 PUSH4 0xDEDC9072 EQ PUSH2 0x76 JUMPI DUP1 PUSH4 0xEEC37691 EQ PUSH2 0x94 JUMPI JUMPDEST PUSH0 PUSH0 REVERT JUMPDEST PUSH2 0x56 PUSH2 0xB2 JUMP JUMPDEST PUSH1 0x40 MLOAD PUSH2 0x63 SWAP2 SWAP1 PUSH2 0x20E JUMP JUMPDEST PUSH1 0x40 MLOAD DUP1 SWAP2 SUB SWAP1 RETURN JUMPDEST PUSH2 0x74 PUSH2 0xFC JUMP JUMPDEST STOP JUMPDEST PUSH2 0x7E PUSH2 0x11A JUMP JUMPDEST PUSH1 0x40 MLOAD PUSH2 0x8B SWAP2 SWAP1 PUSH2 0x236 JUMP JUMPDEST PUSH1 0x40 MLOAD DUP1 SWAP2 SUB SWAP1 RETURN JUMPDEST PUSH2 0x9C PUSH2 0x136 JUMP JUMPDEST PUSH1 0x40 MLOAD PUSH2 0xA9 SWAP2 SWAP1 PUSH2 0x236 JUMP JUMPDEST PUSH1 0x40 MLOAD DUP1 SWAP2 SUB SWAP1 RETURN JUMPDEST PUSH2 0xBA PUSH2 0x13E JUMP JUMPDEST PUSH0 PUSH1 0x4 DUP1 PUSH1 0x20 MUL PUSH1 0x40 MLOAD SWAP1 DUP2 ADD PUSH1 0x40 MSTORE DUP1 SWAP3 SWAP2 SWAP1 DUP3 PUSH1 0x4 DUP1 ISZERO PUSH2 0xF2 JUMPI PUSH1 0x20 MUL DUP3 ADD SWAP2 JUMPDEST DUP2 SLOAD DUP2 MSTORE PUSH1 0x20 ADD SWAP1 PUSH1 0x1 ADD SWAP1 DUP1 DUP4 GT PUSH2 0xDE JUMPI JUMPDEST POP POP POP POP POP SWAP1 POP SWAP1 JUMP JUMPDEST PUSH2 0x1F4 PUSH0 PUSH1 0x2 PUSH1 0x4 DUP2 LT PUSH2 0x113 JUMPI PUSH2 0x112 PUSH2 0x24F JUMP JUMPDEST JUMPDEST ADD DUP2 SWAP1 SSTORE POP JUMP JUMPDEST PUSH0 PUSH0 PUSH1 0x2 PUSH1 0x4 DUP2 LT PUSH2 0x12F JUMPI PUSH2 0x12E PUSH2 0x24F JUMP JUMPDEST JUMPDEST ADD SLOAD SWAP1 POP SWAP1 JUMP JUMPDEST PUSH0 PUSH1 0x4 SWAP1 POP SWAP1 JUMP JUMPDEST PUSH1 0x40 MLOAD DUP1 PUSH1 0x80 ADD PUSH1 0x40 MSTORE DUP1 PUSH1 0x4 SWAP1 PUSH1 0x20 DUP3 MUL DUP1 CALLDATASIZE DUP4 CALLDATACOPY DUP1 DUP3 ADD SWAP2 POP POP SWAP1 POP POP SWAP1 JUMP JUMPDEST PUSH0 PUSH1 0x4 SWAP1 POP SWAP2 SWAP1 POP JUMP JUMPDEST PUSH0 DUP2 SWAP1 POP SWAP3 SWAP2 POP POP JUMP JUMPDEST PUSH0 DUP2 SWAP1 POP SWAP2 SWAP1 POP JUMP JUMPDEST PUSH0 DUP2 SWAP1 POP SWAP2 SWAP1 POP JUMP JUMPDEST PUSH2 0x18F DUP2 PUSH2 0x17D JUMP JUMPDEST DUP3 MSTORE POP POP JUMP JUMPDEST PUSH0 PUSH2 0x1A0 DUP4 DUP4 PUSH2 0x186 JUMP JUMPDEST PUSH1 0x20 DUP4 ADD SWAP1 POP SWAP3 SWAP2 POP POP JUMP JUMPDEST PUSH0 PUSH1 0x20 DUP3 ADD SWAP1 POP SWAP2 SWAP1 POP JUMP JUMPDEST PUSH2 0x1C1 DUP2 PUSH2 0x160 JUMP JUMPDEST PUSH2 0x1CB DUP2 DUP5 PUSH2 0x16A JUMP JUMPDEST SWAP3 POP PUSH2 0x1D6 DUP3 PUSH2 0x174 JUMP JUMPDEST DUP1 PUSH0 JUMPDEST DUP4 DUP2 LT ISZERO PUSH2 0x206 JUMPI DUP2 MLOAD PUSH2 0x1ED DUP8 DUP3 PUSH2 0x195 JUMP JUMPDEST SWAP7 POP PUSH2 0x1F8 DUP4 PUSH2 0x1AC JUMP JUMPDEST SWAP3 POP POP PUSH1 0x1 DUP2 ADD SWAP1 POP PUSH2 0x1D9 JUMP JUMPDEST POP POP POP POP POP POP JUMP JUMPDEST PUSH0 PUSH1 0x80 DUP3 ADD SWAP1 POP PUSH2 0x221 PUSH0 DUP4 ADD DUP5 PUSH2 0x1B8 JUMP JUMPDEST SWAP3 SWAP2 POP POP JUMP JUMPDEST PUSH2 0x230 DUP2 PUSH2 0x17D JUMP JUMPDEST DUP3 MSTORE POP POP JUMP JUMPDEST PUSH0 PUSH1 0x20 DUP3 ADD SWAP1 POP PUSH2 0x249 PUSH0 DUP4 ADD DUP5 PUSH2 0x227 JUMP JUMPDEST SWAP3 SWAP2 POP POP JUMP JUMPDEST PUSH32 0x4E487B7100000000000000000000000000000000000000000000000000000000 PUSH0 MSTORE PUSH1 0x32 PUSH1 0x4 MSTORE PUSH1 0x24 PUSH0 REVERT INVALID LOG2 PUSH5 0x6970667358 0x22 SLT KECCAK256 DUP12 PUSH31 0xB68184011EBF340281864D999B9548EE8D588A7FBEFC3ABCE6A02B8B047364 PUSH20 0x6F6C634300082200330000000000000000000000 "
		},
		"gasEstimates": {
			"creation": {
				"codeDepositCost": "138000",
				"executionCost": "181",
				"totalCost": "138181"
			},
			"external": {
				"get_length()": "376",
				"my_read_arr()": "infinite",
				"my_read_one_element()": "2482",
				"my_write()": "22285"
			}
		},
		"methodIdentifiers": {
			"get_length()": "eec37691",
			"my_read_arr()": "520a8a9e",
			"my_read_one_element()": "dedc9072",
			"my_write()": "8513eeb5"
		}
	},
	"abi": [
		{
			"inputs": [],
			"name": "get_length",
			"outputs": [
				{
					"internalType": "uint256",
					"name": "",
					"type": "uint256"
				}
			],
			"stateMutability": "view",
			"type": "function"
		},
		{
			"inputs": [],
			"name": "my_read_arr",
			"outputs": [
				{
					"internalType": "uint256[4]",
					"name": "",
					"type": "uint256[4]"
				}
			],
			"stateMutability": "view",
			"type": "function"
		},
		{
			"inputs": [],
			"name": "my_read_one_element",
			"outputs": [
				{
					"internalType": "uint256",
					"name": "",
					"type": "uint256"
				}
			],
			"stateMutability": "view",
			"type": "function"
		},
		{
			"inputs": [],
			"name": "my_write",
			"outputs": [],
			"stateMutability": "nonpayable",
			"type": "function"
		}
	]
}