{
	"data": {
		"bytecode": {
			"linkReferences": {},
			"object": "6080604052348015600e575f5ffd5b506104a88061001c5f395ff3fe608060405234801561000f575f5ffd5b5060043610610034575f3560e01c80630a32b22414610038578063380f116014610068575b5f5ffd5b610052600480360381019061004d9190610143565b610098565b60405161005f91906101de565b60405180910390f35b610082600480360381019061007d919061032a565b6100c6565b60405161008f9190610380565b60405180910390f35b60605f826040516020016100ac91906103b9565b604051602081830303815290604052905080915050919050565b5f5f829050806100d59061040c565b915050919050565b5f604051905090565b5f5ffd5b5f5ffd5b5f7fffffffff0000000000000000000000000000000000000000000000000000000082169050919050565b610122816100ee565b811461012c575f5ffd5b50565b5f8135905061013d81610119565b92915050565b5f60208284031215610158576101576100e6565b5b5f6101658482850161012f565b91505092915050565b5f81519050919050565b5f82825260208201905092915050565b8281835e5f83830152505050565b5f601f19601f8301169050919050565b5f6101b08261016e565b6101ba8185610178565b93506101ca818560208601610188565b6101d381610196565b840191505092915050565b5f6020820190508181035f8301526101f681846101a6565b905092915050565b5f5ffd5b5f5ffd5b7f4e487b71000000000000000000000000000000000000000000000000000000005f52604160045260245ffd5b61023c82610196565b810181811067ffffffffffffffff8211171561025b5761025a610206565b5b80604052505050565b5f61026d6100dd565b90506102798282610233565b919050565b5f67ffffffffffffffff82111561029857610297610206565b5b6102a182610196565b9050602081019050919050565b828183375f83830152505050565b5f6102ce6102c98461027e565b610264565b9050828152602081018484840111156102ea576102e9610202565b5b6102f58482856102ae565b509392505050565b5f82601f830112610311576103106101fe565b5b81356103218482602086016102bc565b91505092915050565b5f6020828403121561033f5761033e6100e6565b5b5f82013567ffffffffffffffff81111561035c5761035b6100ea565b5b610368848285016102fd565b91505092915050565b61037a816100ee565b82525050565b5f6020820190506103935f830184610371565b92915050565b5f819050919050565b6103b36103ae826100ee565b610399565b82525050565b5f6103c482846103a2565b60048201915081905092915050565b5f81519050919050565b5f819050602082019050919050565b5f6103f782516100ee565b80915050919050565b5f82821b905092915050565b5f610416826103d3565b82610420846103dd565b905061042b816103ec565b9250600482101561046b576104667fffffffff0000000000000000000000000000000000000000000000000000000083600403600802610400565b831692505b505091905056fea264697066735822122085d14c54ade3235ec065e88e3d04db082c66b190823253c2d5d9a3283e634a2064736f6c63430008220033",
			"opcodes": "PUSH1 0x80 PUSH1 0x40 MSTORE CALLVALUE DUP1 ISZERO PUSH1 0xE JUMPI PUSH0 PUSH0 REVERT JUMPDEST POP PUSH2 0x4A8 DUP1 PUSH2 0x1C PUSH0 CODECOPY PUSH0 RETURN INVALID PUSH1 0x80 PUSH1 0x40 MSTORE CALLVALUE DUP1 ISZERO PUSH2 0xF JUMPI PUSH0 PUSH0 REVERT JUMPDEST POP PUSH1 0x4 CALLDATASIZE LT PUSH2 0x34 JUMPI PUSH0 CALLDATALOAD PUSH1 0xE0 SHR DUP1 PUSH4 0xA32B224 EQ PUSH2 0x38 JUMPI DUP1 PUSH4 0x380F1160 EQ PUSH2 0x68 JUMPI JUMPDEST PUSH0 PUSH0 REVERT JUMPDEST PUSH2 0x52 PUSH1 0x4 DUP1 CALLDATASIZE SUB DUP2 ADD SWAP1 PUSH2 0x4D SWAP2 SWAP1 PUSH2 0x143 JUMP JUMPDEST PUSH2 0x98 JUMP JUMPDEST PUSH1 0x40 MLOAD PUSH2 0x5F SWAP2 SWAP1 PUSH2 0x1DE JUMP JUMPDEST PUSH1 0x40 MLOAD DUP1 SWAP2 SUB SWAP1 RETURN JUMPDEST PUSH2 0x82 PUSH1 0x4 DUP1 CALLDATASIZE SUB DUP2 ADD SWAP1 PUSH2 0x7D SWAP2 SWAP1 PUSH2 0x32A JUMP JUMPDEST PUSH2 0xC6 JUMP JUMPDEST PUSH1 0x40 MLOAD PUSH2 0x8F SWAP2 SWAP1 PUSH2 0x380 JUMP JUMPDEST PUSH1 0x40 MLOAD DUP1 SWAP2 SUB SWAP1 RETURN JUMPDEST PUSH1 0x60 PUSH0 DUP3 PUSH1 0x40 MLOAD PUSH1 0x20 ADD PUSH2 0xAC SWAP2 SWAP1 PUSH2 0x3B9 JUMP JUMPDEST PUSH1 0x40 MLOAD PUSH1 0x20 DUP2 DUP4 SUB SUB DUP2 MSTORE SWAP1 PUSH1 0x40 MSTORE SWAP1 POP DUP1 SWAP2 POP POP SWAP2 SWAP1 POP JUMP JUMPDEST PUSH0 PUSH0 DUP3 SWAP1 POP DUP1 PUSH2 0xD5 SWAP1 PUSH2 0x40C JUMP JUMPDEST SWAP2 POP POP SWAP2 SWAP1 POP JUMP JUMPDEST PUSH0 PUSH1 0x40 MLOAD SWAP1 POP SWAP1 JUMP JUMPDEST PUSH0 PUSH0 REVERT JUMPDEST PUSH0 PUSH0 REVERT JUMPDEST PUSH0 PUSH32 0xFFFFFFFF00000000000000000000000000000000000000000000000000000000 DUP3 AND SWAP1 POP SWAP2 SWAP1 POP JUMP JUMPDEST PUSH2 0x122 DUP2 PUSH2 0xEE JUMP JUMPDEST DUP2 EQ PUSH2 0x12C JUMPI PUSH0 PUSH0 REVERT JUMPDEST POP JUMP JUMPDEST PUSH0 DUP2 CALLDATALOAD SWAP1 POP PUSH2 0x13D DUP2 PUSH2 0x119 JUMP JUMPDEST SWAP3 SWAP2 POP POP JUMP JUMPDEST PUSH0 PUSH1 0x20 DUP3 DUP5 SUB SLT ISZERO PUSH2 0x158 JUMPI PUSH2 0x157 PUSH2 0xE6 JUMP JUMPDEST JUMPDEST PUSH0 PUSH2 0x165 DUP5 DUP3 DUP6 ADD PUSH2 0x12F JUMP JUMPDEST SWAP2 POP POP SWAP3 SWAP2 POP POP JUMP JUMPDEST PUSH0 DUP2 MLOAD SWAP1 POP SWAP2 SWAP1 POP JUMP JUMPDEST PUSH0 DUP3 DUP3 MSTORE PUSH1 0x20 DUP3 ADD SWAP1 POP SWAP3 SWAP2 POP POP JUMP JUMPDEST DUP3 DUP2 DUP4 MCOPY PUSH0 DUP4 DUP4 ADD MSTORE POP POP POP JUMP JUMPDEST PUSH0 PUSH1 0x1F NOT PUSH1 0x1F DUP4 ADD AND SWAP1 POP SWAP2 SWAP1 POP JUMP JUMPDEST PUSH0 PUSH2 0x1B0 DUP3 PUSH2 0x16E JUMP JUMPDEST PUSH2 0x1BA DUP2 DUP6 PUSH2 0x178 JUMP JUMPDEST SWAP4 POP PUSH2 0x1CA DUP2 DUP6 PUSH1 0x20 DUP7 ADD PUSH2 0x188 JUMP JUMPDEST PUSH2 0x1D3 DUP2 PUSH2 0x196 JUMP JUMPDEST DUP5 ADD SWAP2 POP POP SWAP3 SWAP2 POP POP JUMP JUMPDEST PUSH0 PUSH1 0x20 DUP3 ADD SWAP1 POP DUP2 DUP2 SUB PUSH0 DUP4 ADD MSTORE PUSH2 0x1F6 DUP2 DUP5 PUSH2 0x1A6 JUMP JUMPDEST SWAP1 POP SWAP3 SWAP2 POP POP JUMP JUMPDEST PUSH0 PUSH0 REVERT JUMPDEST PUSH0 PUSH0 REVERT JUMPDEST PUSH32 0x4E487B7100000000000000000000000000000000000000000000000000000000 PUSH0 MSTORE PUSH1 0x41 PUSH1 0x4 MSTORE PUSH1 0x24 PUSH0 REVERT JUMPDEST PUSH2 0x23C DUP3 PUSH2 0x196 JUMP JUMPDEST DUP2 ADD DUP2 DUP2 LT PUSH8 0xFFFFFFFFFFFFFFFF DUP3 GT OR ISZERO PUSH2 0x25B JUMPI PUSH2 0x25A PUSH2 0x206 JUMP JUMPDEST JUMPDEST DUP1 PUSH1 0x40 MSTORE POP POP POP JUMP JUMPDEST PUSH0 PUSH2 0x26D PUSH2 0xDD JUMP JUMPDEST SWAP1 POP PUSH2 0x279 DUP3 DUP3 PUSH2 0x233 JUMP JUMPDEST SWAP2 SWAP1 POP JUMP JUMPDEST PUSH0 PUSH8 0xFFFFFFFFFFFFFFFF DUP3 GT ISZERO PUSH2 0x298 JUMPI PUSH2 0x297 PUSH2 0x206 JUMP JUMPDEST JUMPDEST PUSH2 0x2A1 DUP3 PUSH2 0x196 JUMP JUMPDEST SWAP1 POP PUSH1 0x20 DUP2 ADD SWAP1 POP SWAP2 SWAP1 POP JUMP JUMPDEST DUP3 DUP2 DUP4 CALLDATACOPY PUSH0 DUP4 DUP4 ADD MSTORE POP POP POP JUMP JUMPDEST PUSH0 PUSH2 0x2CE PUSH2 0x2C9 DUP5 PUSH2 0x27E JUMP JUMPDEST PUSH2 0x264 JUMP JUMPDEST SWAP1 POP DUP3 DUP2 MSTORE PUSH1 0x20 DUP2 ADD DUP5 DUP5 DUP5 ADD GT ISZERO PUSH2 0x2EA JUMPI PUSH2 0x2E9 PUSH2 0x202 JUMP JUMPDEST JUMPDEST PUSH2 0x2F5 DUP5 DUP3 DUP6 PUSH2 0x2AE JUMP JUMPDEST POP SWAP4 SWAP3 POP POP POP JUMP JUMPDEST PUSH0 DUP3 PUSH1 0x1F DUP4 ADD SLT PUSH2 0x311 JUMPI PUSH2 0x310 PUSH2 0x1FE JUMP JUMPDEST JUMPDEST DUP2 CALLDATALOAD PUSH2 0x321 DUP5 DUP3 PUSH1 0x20 DUP7 ADD PUSH2 0x2BC JUMP JUMPDEST SWAP2 POP POP SWAP3 SWAP2 POP POP JUMP JUMPDEST PUSH0 PUSH1 0x20 DUP3 DUP5 SUB SLT ISZERO PUSH2 0x33F JUMPI PUSH2 0x33E PUSH2 0xE6 JUMP JUMPDEST JUMPDEST PUSH0 DUP3 ADD CALLDATALOAD PUSH8 0xFFFFFFFFFFFFFFFF DUP2 GT ISZERO PUSH2 0x35C JUMPI PUSH2 0x35B PUSH2 0xEA JUMP JUMPDEST JUMPDEST PUSH2 0x368 DUP5 DUP3 DUP6 ADD PUSH2 0x2FD JUMP JUMPDEST SWAP2 POP POP SWAP3 SWAP2 POP POP JUMP JUMPDEST PUSH2 0x37A DUP2 PUSH2 0xEE JUMP JUMPDEST DUP3 MSTORE POP POP JUMP JUMPDEST PUSH0 PUSH1 0x20 DUP3 ADD SWAP1 POP PUSH2 0x393 PUSH0 DUP4 ADD DUP5 PUSH2 0x371 JUMP JUMPDEST SWAP3 SWAP2 POP POP JUMP JUMPDEST PUSH0 DUP2 SWAP1 POP SWAP2 SWAP1 POP JUMP JUMPDEST PUSH2 0x3B3 PUSH2 0x3AE DUP3 PUSH2 0xEE JUMP JUMPDEST PUSH2 0x399 JUMP JUMPDEST DUP3 MSTORE POP POP JUMP JUMPDEST PUSH0 PUSH2 0x3C4 DUP3 DUP5 PUSH2 0x3A2 JUMP JUMPDEST PUSH1 0x4 DUP3 ADD SWAP2 POP DUP2 SWAP1 POP SWAP3 SWAP2 POP POP JUMP JUMPDEST PUSH0 DUP2 MLOAD SWAP1 POP SWAP2 SWAP1 POP JUMP JUMPDEST PUSH0 DUP2 SWAP1 POP PUSH1 0x20 DUP3 ADD SWAP1 POP SWAP2 SWAP1 POP JUMP JUMPDEST PUSH0 PUSH2 0x3F7 DUP3 MLOAD PUSH2 0xEE JUMP JUMPDEST DUP1 SWAP2 POP POP SWAP2 SWAP1 POP JUMP JUMPDEST PUSH0 DUP3 DUP3 SHL SWAP1 POP SWAP3 SWAP2 POP POP JUMP JUMPDEST PUSH0 PUSH2 0x416 DUP3 PUSH2 0x3D3 JUMP JUMPDEST DUP3 PUSH2 0x420 DUP5 PUSH2 0x3DD JUMP JUMPDEST SWAP1 POP PUSH2 0x42B DUP2 PUSH2 0x3EC JUMP JUMPDEST SWAP3 POP PUSH1 0x4 DUP3 LT ISZERO PUSH2 0x46B JUMPI PUSH2 0x466 PUSH32 0xFFFFFFFF00000000000000000000000000000000000000000000000000000000 DUP4 PUSH1 0x4 SUB PUSH1 0x8 MUL PUSH2 0x400 JUMP JUMPDEST DUP4 AND SWAP3 POP JUMPDEST POP POP SWAP2 SWAP1 POP JUMP INVALID LOG2 PUSH5 0x6970667358 0x22 SLT KECCAK256 DUP6 DATALOADN 0x4C54 0xAD CALLF 0x235E 0xC0 PUSH6 0xE88E3D04DB08 0x2C PUSH7 0xB190823253C2D5 0xD9 LOG3 0x28 RETURNDATACOPY PUSH4 0x4A206473 PUSH16 0x6C634300082200330000000000000000 "
		},
		"gasEstimates": {
			"creation": {
				"codeDepositCost": "238400",
				"executionCost": "279",
				"totalCost": "238679"
			},
			"external": {
				"bytes4_to_str(bytes4)": "infinite",
				"str_to_bytes4(string)": "infinite"
			}
		},
		"methodIdentifiers": {
			"bytes4_to_str(bytes4)": "0a32b224",
			"str_to_bytes4(string)": "380f1160"
		}
	},
	"abi": [
		{
			"inputs": [
				{
					"internalType": "bytes4",
					"name": "a",
					"type": "bytes4"
				}
			],
			"name": "bytes4_to_str",
			"outputs": [
				{
					"internalType": "string",
					"name": "",
					"type": "string"
				}
			],
			"stateMutability": "pure",
			"type": "function"
		},
		{
			"inputs": [
				{
					"internalType": "string",
					"name": "name",
					"type": "string"
				}
			],
			"name": "str_to_bytes4",
			"outputs": [
				{
					"internalType": "bytes4",
					"name": "",
					"type": "bytes4"
				}
			],
			"stateMutability": "pure",
			"type": "function"
		}
	]
}